:020000040000FA
:060000000BEF18F01200E6
:0600080004EF08F01200F5
:060018000CEF08F01200DD
:060800000BEF18F01200DE
:060808000FEF08F01200E2
:0608180012EF08F01200CF
:061000000BEF18F01200D6
:021006000000E8
:061008000FEF08F01200DA
:02100E001200CE
:0610180012EF08F01200C7
:02101E00E5ECFF
:101020000EF01100D8CFE4FFE0CFE4FFE46EE5EC72
:101030000EF0E550E5CFE0FFE5CFD8FF1000D9CFA7
:10104000E6FFE1CFD9FF020EE126400E136E0B6AD8
:101050000C6A530E0D6EC950F76A560FF66E2D0EC0
:10106000F7220800F5500E6E0B50EA6A000FE96E89
:10107000010EEA220DC0EFFF0B2A0B50EA6A000FA7
:10108000E96E010EEA220EC0EFFF0B2A0DB08B882D
:101090000DA08B988B8000008B900DB28B880DA2D9
:1010A0008B988B8000008B900DB48B880DA48B984F
:1010B0008B8000008B900DB68B880DA68B988B8053
:1010C00000008B900DB88B880DA88B988B8000004A
:1010D0008B900DBA8B880DAA8B988B8000008B901B
:1010E0000DBC8B880DAC8B988B8000008B900DBE57
:1010F0008B880DAE8B988B8000008B900E6A0DB0A4
:101100008B880DA08B9881B80E808B8000008B900F
:101110000DB28B880DA28B9881B80E828B80000057
:101120008B900DB48B880DA48B9881B80E848B8026
:1011300000008B900DB68B880DA68B9881B80E861B
:101140008B8000008B900DB88B880DA88B9881B890
:101150000E888B8000008B900DBA8B880DAA8B981F
:1011600081B80E8A8B8000008B900DBC8B880DACF3
:101170008B9881B80E8C8B8000008B900DBE8B8875
:101180000DAE8B9881B80E8E8B8000008B900E6A0E
:101190000DB08B880DA08B9881BA0E808B800000DB
:1011A0008B900DB28B880DA28B9881BA0E828B80AA
:1011B00000008B900DB48B880DA48B9881BA0E849F
:1011C0008B8000008B900DB68B880DA68B9881BA12
:1011D0000E868B8000008B900DB88B880DA88B98A5
:1011E00081BA0E888B8000008B900DBA8B880DAA77
:1011F0008B9881BA0E8A8B8000008B900DBC8B88F7
:101200000DAC8B9881BA0E8C8B8000008B900DBE3C
:101210008B880DAE8B9881BA0E8E8B8000008B90E0
:101220000C50146E156A0C500B5C166E176AFF0E8C
:10123000D8801656000E1756010E1626000E1722DD
:1012400017501518E8AE02D0153404D01450165CAF
:10125000155017581CE30C500B5CE66EE66A0C50F8
:10126000156A000F146E010E152214C0E6FF15C09A
:10127000E6FFC20EE66E020EE66E7AEC17F0166E10
:10128000060EE15E16500C500B5C0C263FD00C5045
:10129000146E156AFF0ED8801456000E1556010EF6
:1012A00014240E6E0E50E66EE66A0C50156A000F9E
:1012B000146E010E152214C0E6FF15C0E6FFC20E23
:1012C000E66E020EE66E7AEC17F0166E060EE15E22
:1012D00016500C500B5CD8800E54E66EE66A000E79
:1012E000E66E010EE66E0E50156AC20F146E020E07
:1012F000152214C0E6FF15C0E6FF7AEC17F0166E53
:10130000060EE15E16500C500B5C0C260B6A0D6A43
:101310000B50EA6A000FE96E010EEA220DC0EFFFE2
:101320000B2A0D50146E156AFF0E141801E11550AA
:1013300001E102D00D2AECD7640E0B6EBE0E0C6ECE
:101340000C50146E156A153404E21450C208000ED5
:1013500015541AE33E0EE66EE66A0C50156A000F4D
:10136000146E010E152214C0E6FF15C0E6FFC20E72
:10137000E66E020EE66E7AEC17F0166E060EE15E71
:1013800016503E0E0C263DD00C50146E156AFF0E02
:10139000D8801456000E1556010E14240E6E0E50F1
:1013A000E66EE66A0C50156A000F146E010E1522E7
:1013B00014C0E6FF15C0E6FFC20EE66E020EE66E32
:1013C0007AEC17F0166E060EE15E16503E0ED880CF
:1013D0000E54E66EE66A000EE66E010EE66E0E50E4
:1013E000156AC20F146E020E152214C0E6FF15C056
:1013F000E6FF7AEC17F0166E060EE15E16503E0E12
:101400000C260C50146E156A153404E21450C208F0
:10141000000E15541AE33E0EE66EE66A0C50156A8D
:10142000000F146E010E152214C0E6FF15C0E6FF72
:10143000C20EE66E020EE66E7AEC17F0166E060E1F
:10144000E15E16503E0E0C263DD00C50146E156A0F
:10145000FF0ED8801456000E1556010E14240E6E81
:101460000E50E66EE66A0C50156A000F146E010EFF
:10147000152214C0E6FF15C0E6FFC20EE66E020E8E
:10148000E66E7AEC17F0166E060EE15E16503E0E12
:10149000D8800E54E66EE66A000EE66E010EE66E29
:1014A0000E50156AC20F146E020E152214C0E6FF0C
:1014B00015C0E6FF7AEC17F0166E060EE15E1650C8
:1014C0003E0E0C261350132AEA6A400FE96E020EF4
:1014D000EA22EF50F76A560FF66E2D0EF72208003B
:1014E000F5500E6EC950F76A560FF66E2D0EF722A4
:1014F0000800F550E66E0B50EA6A000FE96E010E27
:10150000EA22E552E750EF6E0B2A0000020EE15C82
:1015100002E2E16AE552E16EE552E7CFD9FF12003F
:101520007E6A7F6A766A926A936A946A9388938ADB
:101530001E0E8B6E800ED56EF29A400EC76EC66A76
:10154000948E938CC69A949094980201310EC06F39
:101550000201600EC16F3DEC16F0ECEC0EF048ECB1
:101560000FF0200E0001E76EA019E8AE02D0E734BC
:1015700002D0E750A05D03E36450020B02E08A9EB4
:101580004DD30001E251E31102E1000E08D0E2C0A8
:10159000E9FFE3C0EAFFEF50800B01E0010E000914
:1015A00001E068D10C500B5C0D6E3E0E146E0D50B8
:1015B000D880145401E28CD00C50146E156A153486
:1015C00004E21450C208000E15541AE33E0EE66EF3
:1015D000E66A0C50156A000F146E010E152214C035
:1015E000E6FF15C0E6FFC20EE66E020EE66E7AEC6E
:1015F00017F0166E060EE15E16503E0E0C263DD01C
:101600000C50146E156AFF0ED8801456000E155635
:10161000010E14240E6E0E50E66EE66A0C50156A2A
:10162000000F146E010E152214C0E6FF15C0E6FF70
:10163000C20EE66E020EE66E7AEC17F0166E060E1D
:10164000E15E16503E0ED8800E54E66EE66A000E3D
:10165000E66E010EE66E0E50156AC20F146E020E93
:10166000152214C0E6FF15C0E6FF7AEC17F0166EDF
:10167000060EE15E16503E0E0C26AFC0E2F0B0C082
:10168000E3F0E2C0E9FFE3C0EAFF020EE926000E44
:10169000EA22C00EEE6E020EED6EE2C0E9FFE3C07C
:1016A000EAFFEE52400EEF6E400E146EE2C0E9FF0C
:1016B000E3C0EAFF1450EF16880E146EE2C0E9FF93
:1016C000E3C0EAFF1450EF120001AF75F284D2D0EC
:1016D0000D5001E19FD00C50146E156A0D50166E1E
:1016E000176AFF0ED8801656000E1756010E1626E2
:1016F000000E172217501518E8AE02D0153404D08A
:101700001450165C155017581AE30D50E66EE66A31
:101710000C50156A000F146E010E152214C0E6FF5E
:1017200015C0E6FFC20EE66E020EE66E7AEC17F00A
:10173000166E060EE15E16500D500C263CD00C5075
:10174000146E156AFF0ED8801456000E1556010E41
:1017500014240E6E0E50E66EE66A0C50156A000FE9
:10176000146E010E152214C0E6FF15C0E6FFC20E6E
:10177000E66E020EE66E7AEC17F0166E060EE15E6D
:1017800016500E500D5CE66EE66A000EE66E010E17
:10179000E66E0E50156AC20F146E020E152214C0AA
:1017A000E6FF15C0E6FF7AEC17F0166E060EE15E56
:1017B00016500D500C26AFC0E2F0B0C0E3F0E2C00E
:1017C000E9FFE3C0EAFF020EE926000EEA22C00E9E
:1017D000EE6E020EED6E020E0D24E66EE2C0E9FF23
:1017E000E3C0EAFFEE52E552E750EF6E400E146E92
:1017F000E2C0E9FFE3C0EAFF1450EF16880E146E52
:10180000E2C0E9FFE3C0EAFF1450EF120001AF7538
:10181000F28430D0F2A42ED0150ED76EA00ED66E64
:10182000F294AFC0E2F0B0C0E3F0E2C0E9FFE3C081
:10183000EAFF020EE926000EEA22C00EEE6E020E4C
:10184000ED6EE2C0E9FFE3C0EAFFEE52020EEF6E7A
:10185000400E146EE2C0E9FFE3C0EAFF1450EF1639
:10186000880E146EE2C0E9FFE3C0EAFF1450EF12E5
:101870000001AF750F5036E112BE1AD00001DE51E3
:10188000DF1102E1000E08D0DEC0E9FFDFC0EAFF91
:10189000EF50800B01E0010E000909E1DEC0E9FF15
:1018A000DFC0EAFFEE52EF500F6E136A12821AD0B9
:1018B0000001E051E11102E1000E08D0E0C0E9FFB3
:1018C000E1C0EAFFEF50800B01E0010E00090AE1E0
:1018D000E0C0E9FFE1C0EAFFEE52EF500F6E400EAC
:1018E000136E12820B500C5CFF0F146E0F50145CC1
:1018F00001E235D60F5001E133D18A9E105061E0EC
:1019000094889480C68A939C949E1350132AEA6A02
:10191000400FE96E020EEA22EF50F76A560FF66E9C
:101920002D0EF7220800F5500D6E12B019D00D5093
:10193000C96E1350132AEA6A400FE96E020EEA22BA
:10194000EF50F76A560FF66E2D0EF7220800F5508D
:101950000D6E10060F06105002E00F50E8E12AD07D
:101960000D50C96E1350132AEA6A400FE96E020E39
:10197000EA22EF50F76A560FF66E2D0EF722080096
:10198000F5500D6EC950F76A560FF66E2D0EF72200
:101990000800F5500E6E0B50EA6A000FE96E010E5A
:1019A000EA220EC0EFFF0B2A10060F06105002E0CD
:1019B0000F50D6E11306948E938CC69A9490949807
:1019C000CCD0115001E198D012B034D094889480DA
:1019D000C68A939C949E1350132AEA6A400FE96EBC
:1019E000020EEA22EF50F76A560FF66E2D0EF7221E
:1019F0000800F5500D6E0D50C96E1350132AEA6A97
:101A0000400FE96E020EEA22EF50F76A560FF66EAB
:101A10002D0EF7220800F5500D6E11060F0611501D
:101A200002E00F50E8E11306948E938CC69A9490CE
:101A3000949861D01350132AEA6A400FE96E020E9F
:101A4000EA22EF500D6E0E6A0DB08B880DA08B98B8
:101A500081BA0E808B8000008B900DB28B880DA216
:101A60008B9881BA0E828B8000008B900DB48B888E
:101A70000DA48B9881BA0E848B8000008B900DB6DC
:101A80008B880DA68B9881BA0E868B8000008B9078
:101A90000DB88B880DA88B9881BA0E888B800000BA
:101AA0008B900DBA8B880DAA8B9881BA0E8A8B8089
:101AB00000008B900DBC8B880DAC8B9881BA0E8C7E
:101AC0008B8000008B900DBE8B880DAE8B9881BAF9
:101AD0000E8E8B8000008B900B50EA6A000FE96E2F
:101AE000010EEA220EC0EFFF0B2A11060F0611505D
:101AF00002E00F509FE131D01350132AEA6A400FE1
:101B0000E96E020EEA22EF500D6E0DBC12800DAC94
:101B100012900DAE0DD08B908BA604D03F0E0D14FD
:101B2000106E03D03F0E0D14116E0F0616D013D099
:101B30000D508B6E12A00ED00E6A81BA0E8281B843
:101B40000E800B50EA6A000FE96E010EEA220EC009
:101B5000EFFF0B2A0F060F50CFE10F5001E0CED65A
:101B60001250020B5BE00F5059E18A8E12BE2BD04F
:101B7000ABC0DEF0ACC0DFF0DEC0E9FFDFC0EAFFE3
:101B8000020EE926000EEA22400EEE6E020EED6E07
:101B9000DEC0E9FFDFC0EAFFEE52400EEF6E400EFE
:101BA000146EDEC0E9FFDFC0EAFF1450EF16880EA6
:101BB000146EDEC0E9FFDFC0EAFF1450EF1200012F
:101BC000AB75127E2AD0ABC0E0F0ACC0E1F0E0C053
:101BD000E9FFE1C0EAFF020EE926000EEA22800ECC
:101BE000EE6E020EED6EE0C0E9FFE1C0EAFFEE52DC
:101BF000400EEF6E400E146EE0C0E9FFE1C0EAFF58
:101C00001450EF16880E146EE0C0E9FFE1C0EAFF41
:101C10001450EF120001AB75127E1292A0D4120084
:101C20001200120012001200D9CFE6FFE1CFD9FF57
:101C3000E65202013051600BE842E842E842E842D5
:101C4000E842020833E130BF07D00001380EB56F1B
:101C5000020EB66FB86B27D0900E315D18E134C21A
:101C600014F035C215F0D890143615367E0E1414C3
:101C7000DF6EDFCFE6FF44EC15F0E5520201386F6E
:101C8000DF28E66E44EC15F0E552020104D00201B3
:101C9000360E386F830E396F0001380EB56F020EA5
:101CA000B66F020EB86FB96BC10EB76FE552E55251
:101CB000E7CFD9FF120012001A0EE66E010EE66E93
:101CC00087EC13F0E552E5521C0EE66E020EE66E4E
:101CD00087EC13F0E552E5520001DE6BDF6BE06B41
:101CE000E16BE26BE36B0B6A0C6A0F6A106A116AB4
:101CF00012000001C3051EE10001C4051BE191DFD4
:101D000064920001C46B0001100EE46F0E0EE56FCB
:101D1000E407000EE55BE451E511FAE16484080E86
:101D2000E46F070EE56FE407000EE55BE451E51193
:101D3000FAE164941200D9CFE6FFE1CFD9FFFD0E9E
:101D4000DBCF06F0FE0EDBCF07F0050E061801E133
:101D5000075036E0E868061802E17F0E07182FE00A
:101D6000030E061801E1075028E0020E061801E1F3
:101D7000075021E0010E061801E107501AE0740E29
:101D8000061801E1075013E0750E061801E107502F
:101D90000CE0730E061801E1075005E0720E0618FC
:101DA0000FE107500DD03EDF0BD03ADF09D039DF0D
:101DB00007D082DF05D07FDF03D036DF01D033DFED
:101DC000010EE552E7CFD9FF1200DACFE4FFE65269
:081DD000E552E5CFDAFF120035
:081DD8000BEC15F0A0940F01C3
:101DE0005F6B626A536B59EC14F08FEC14F0DF6A8E
:101DF00097EC14F003E249EC14F0FAD7648C0F016D
:101E00005C6B6498649C62A607D062960001B76B15
:101E1000BC6BBD6BBE6BF7D70001010ED06FD16FED
:101E2000D26BD36BC46BDF6A030EDF5C1AE2EA6A23
:101E3000DF340EEC15F0EA22EE6AED6AEA6ADF346E
:101E400015EC15F0EA22EE6AED6ADF5028EC15F089
:101E5000EA22EF6ADF5023EC15F0EA22EF6ADF2A6C
:101E6000E3D70001080EAD6F020EAE6F0F01160E24
:101E7000536F0201300E026F020E036F080E016FE6
:101E8000840E006F0001A16BA06BE55223EF14F0EC
:101E90000BEC15F00001A0510BE1646A606A8FEC55
:101EA00014F064B602D06486FCD70001010EA06F66
:101EB000A00508E164BA06D0626A606A6080608842
:101EC000020EA06F6250040B05E06050040B02E0AC
:101ED000629499D864B245D06250010B08E060501A
:101EE000010B05E079DF0001040EA06F62906250E3
:101EF000100B05E06050100B02E07AD8629862ACDB
:101F00000FD060AC05D0AEEC14F0730E10EC14F0F2
:101F1000629C0001CE5101E0CE07CE5101E10FDA03
:101F20006250200B04E06050200B01E04DD862505D
:101F3000020B0CE06050020B09E0AEEC14F0E66816
:101F40007F0EE66E1CEC15F00F015F6B040E0001B6
:101F5000E76EA019E8AE02D0E73402D0E750A05DEA
:101F600002E2A1942ED060A62BD0DF6A040EDF5CC3
:101F700027E262A625D063CFC5F00001C551780BDA
:101F8000E842E842E842C66F6296C5B504D0C65141
:101F900023EC15F003D0C65128EC15F0EA22EF70BF
:101FA000C65102E13ED80AD0000EE66EE66AC50EC2
:101FB000E66E000EE66E720E10EC14F0DF2AD6D735
:101FC000A194E55223EF14F00F0153A10FD02FEC91
:101FD00014F0EF50800809E119EC14F0EF50840878
:101FE00004E12FEC14F08C0EEF6E5391629A120004
:101FF0006084629864820001010EC46F75EC14F075
:10200000750E10EF14F00001C46B75EC14F0740E33
:1020100010EC14F06492609462A402D06294FCD735
:1020200012000BEC15F000012D0ECE6FFD0EC51544
:102030003EE17E0EC515E8407F0B040DF3CFA3F003
:10204000F4CFA4F0000EA327020EA423A3C0A5F092
:10205000A4C0A6F0A5752FEC14F0EF503C0BE8429D
:10206000E8420D0822E1DF6A080EDF5C19E22FEC7E
:1020700014F0020EE926000E62EC14F0EF50E66E4A
:10208000DF50EA6A300FE96E020EEA22E552E750AD
:10209000EF6EE5DB3BEC15F0EE2AEF22DF2AE4D70A
:1020A000DEDBDBEC14F00AD807D025D805D0FD0E16
:1020B000C515040801E12ED8E552C5D30001B36B64
:1020C000CF6BD26BD36BC76BB46BB3DBEF9EAD75CD
:1020D000B0DBEF9EAD75CAEC14F0EF9EB76BB86B3A
:1020E000B96BBC6BBD6BBE6B53D875EC14F0030EB3
:1020F00097DB57EF12F0020E0001B45D02E1C3EF6F
:1021000012F0B46BC75104E182DB8C0EEF6E12004B
:10211000C76B12000BEC15F08CDBEF50400B01E0AD
:10212000010EDF6E0001AD75080EA05D0BE132C23D
:102130005CFF0F015C5103E00001100E02D00001B2
:10214000040EA06FB40513E174DB8EDBDDD9020E43
:102150000001B35D03E16DDB840E07D0DF5003E1C6
:1021600068DBC80E02D065DB880EEF6E0FD0BCAF07
:102170000CD0BF51C01107E005D0C0C0FAFF00016C
:10218000BF51F96EFADF0001BC9FB46BE5525BD31F
:1021900002013051600BE842E842E842E842E8427E
:1021A000000901E0120031510C0A45E00B0A3FE042
:1021B0000C0A31E0010A22E00B0A1EE0020A1CE0D0
:1021C000030A18E0080A10E0010A0CE00F0A08E010
:1021D000030A01E012000001B78F080EA06F120081
:1021E000E1EF11F027EF13F00001A10EB56F000E23
:1021F000B66F0CD01EEF12F01CEF11F0345100013D
:10220000B56FB66BA20EB527000EB623B781010ECF
:10221000B86FB78F12000001B78F02013451EA6A1C
:10222000A20FE96E000EEA2232C2EFFF12005DDB60
:10223000020E10EF14F0120001DB030EE126020182
:10224000320510E130511F0B00090CE10001B78F7E
:10225000030E0201315D04E10001010EC36F02D0E3
:102260000001C36B0201325163E130511F0B0208C0
:102270005FE134510F0B00095BE034510F0B020892
:1022800057E3200E0001A05D53E1B78F020134BF78
:1022900004D0ACDB30DB35DB03D0ADDB2CDB35DB56
:1022A000EA22020EEFCFDBFF60DB010B03E1000E41
:1022B000DF9401D0DF8434BF02D098DB01D09BDBF8
:1022C000EA22DECFEEFFDDCFEDFF030E315D0CE144
:1022D000C4DB07E034BF02D014DB01D016DBEA22F6
:1022E000EF82840ECDDB24D0DF74B7DB06E09CDA0E
:1022F000EF9E9ADAEF8C69DB02D096DAEF8CDF740E
:1023000034DB020B06E1A9DB11E08EDAEF50040B9F
:102310000DE1020134BF02D0F4DA01D0F6DAEA228C
:10232000EF923B0E146E9DDB50DB02D03B0E99DB2F
:10233000030EE15C02E2E16AE552E16E84D2000143
:10234000D05121E1010ED06FD1511DE1010ED16FAD
:10235000020EB45D07E16DDAEE52EF6A6ADAC80E7A
:10236000EF6E1200B4050FE1C76B79DAEE52080E7A
:10237000EF6E75DA20DB73DA840EEF6E010EC76F35
:1023800046DA800EEF6E12000001D26BD36B020EA4
:10239000B45D04E16ADB68DAFDDA10D0B8510201FD
:1023A000365D0001B9510201375904E236C2B8F076
:1023B00037C2B9F0A9D83DDA57DA3BDAC80EEF6E6A
:1023C0001200800E0201305D38E10001C00EB76FCF
:1023D00002013351030A1AE0010A09E0030A2BE162
:1023E00000017E0EB56F2F0EB66F120E1ED0CBDA27
:1023F000EC0EF6262F0EA3DA020E0001BDDAF5CFA1
:10240000B8F0030EB9DAF5CFB9F01200040E325D60
:102410000FE2B9DAEE0EF6262F0E91DAB5C0F6FF0E
:10242000B6C0F7FF0800F5500001B86FB96B120095
:102430000001B76B12000001B76B1200C2DA020193
:10244000386B396B30511F0B020A11E0030A0CE0A4
:10245000010A1CE10001B78F020138810001C305A8
:1024600015E10201388312D00001B78F0FD00001AF
:10247000B78F020134BF02D0B9DA01D0BCDA3BDA3F
:10248000D3D9EF50040B02E0010E386F0001B7AF53
:1024900007D0380EB56F020EB66FB781020EB86F57
:1024A000020EE15C02E2E16AE552E16ECCD1649891
:1024B0000001B7BF0DD0BCAF09D0020EB46FD3512D
:1024C00001E162DF0001D16BD06B1200EFEF14F07D
:1024D000020130AF0DD00001010EB46FD25101E105
:1024E00053DF0001D16BD06BCF510DE19FEF11F0A5
:1024F0000001020EB46F8BD9840EEF6ED16BD06BDE
:10250000CF5101E11CDF120086DA080EDF6E0001F8
:10251000B85D000EB9590AE2B8C0DFFFB35102E15D
:10252000010E03D0B30502E1020EB36FDF50156A4E
:10253000E850B85DB86F1550B959B96F7AD9EE52F5
:10254000DFCFEFFF380EC16F020EC26FB7B10DD0F3
:10255000DF5017E0B5C0F6FFB6C0F7FFB52B000E91
:10256000B6230800F550B4D9F3D7DF500AE0B5C060
:10257000E9FFB6C0EAFFB52B000EB623EF50A8D98D
:10258000F4D7E55260D11DDA6AD9EE52EFCFDFFF02
:10259000DFCF14F014500001BD5D000EBE5902E201
:1025A000BDC0DFFFDF50146E156AE850BD5DBD6F22
:1025B0001550BE59BE6F010EDB6ADF50F36E010E7F
:1025C000DBCFF4FFF350F45C16E2010EDB50EA6A55
:1025D000380FE96E020EEA22EF50E66EBAC0E9FF4C
:1025E000BBC0EAFFBA2B000EBB23E552E750EF6EEB
:1025F000010EDB2AE2D7000ED880BD55000EBE5575
:102600000DE233DA31D92BD9EF50400B03E1C2D9B7
:10261000C80E02D0BFD9880EEF6E12D0F8D8840E43
:10262000EF6EBF51C01107E005D0C0C0FAFF000136
:10263000BF51F96EFADF0001BC9FCF5101E17FDE8F
:10264000020EE15C02E2E16AE552E16EFCD0E3D900
:102650000001B78F2ED9DF6A6AD902E21AD9FCD7F6
:10266000648C010EE66EE66AE66AA20EE66E000E65
:10267000CAD9649C0001080EAD6F020EAE6F000E49
:10268000A36F020EA46FA3C0A5F0A66F32C2A1F083
:10269000A15102E1100E0BD0010EE66EE66AA10E0A
:1026A000E66E000EE66E010EBBD80001200EA06F94
:1026B000E552C9D086D9000EDE6E020EDD6EDAD884
:1026C000040DF4CF15F0D9CFE9FFDACFEAFFF350CC
:1026D000EE261550ED22A8D8EF9EFD0EDB5002E14C
:1026E000D3D801D098D8EA22DECFEEFFDDCFEDFFC0
:1026F0009BD8EF9C99D8040EE926000EEA22EF8CB5
:10270000020EE15C02E2E16AE552E16E9CD059D929
:10271000FD0EDBA402D0E66A1AD9FD0EDBA203D0BF
:10272000010EE66E14D9FE0EDB50156A530F146EBF
:102730000F0EEFD879D8FD0EDBCFEFFF020EE15C74
:1027400002E2E16AE552E16E7ED03BD9FE0EDB503B
:1027500002E145D905D08ED822D98CD8010F1FD9D6
:10276000020EE15C02E2E16AE552E16E6CD029D929
:10277000FD0EDB5002E04FD801D086D8BCD8D9CFAF
:10278000E9FFDACFEAFFEE50ED1003E1F36AF46AF5
:1027900021D04AD870D9FB0EDBCFEEFFFC0EDBCF89
:1027A000EDFF42D8EE52FA0EDBCFEFFF400E59D9C3
:1027B000880E66D9FD0EDB5002E02DD801D064D81A
:1027C000EA22EF74DECF14F0DDCF15F014C0F3FF72
:1027D00015C0F4FF020EE15C02E2E16AE552E16E2F
:1027E00032D02CD864A812D00BD9400EEE16EE6A67
:1027F000EE6AEE6A05D9EE7C0ED8EA22EF74400E3E
:10280000146EFED81450EF16FBD8EF7C1CD02DD9D7
:10281000D2D8CAEF14F0FE0EEA6ADB340EEF15F0E0
:10282000E66EE66A1CEF15F0DECFE9FFDDCFEAFFCA
:102830001200ADC0E9FFAEC0EAFF1200D9CFE6FF3B
:10284000E1CFD9FF1200E552E7CFD9FF1200345192
:102850000F0BE96EEA6AD890E936EA361200A3C097
:10286000E9FFA4C0EAFF120006D9380EEE6E020E90
:10287000ED6E1200FD0EDB50E824166EFE0EDB50EE
:10288000040DF35016241200FE0EEA6ADB3415EF35
:1028900015F0DF50040DF3CFE9FFF4CFEAFF000E8F
:1028A000E926020EEA22EE6AEE6AEE6AEE6ADF2A94
:1028B0001200020EE66EE66AE66A540EE66E0F0E2F
:1028C00003EF15F0EA22EE50EFCFEAFFE96E1200B7
:1028D000E66EC1C0E9FFC2C0EAFFC12B000EC223F1
:1028E000E552E750EF6EDF061200000EE66EE66A74
:1028F000E66EE66A1200EA22EECFDEFFEDCFDDFFE4
:10290000120034510F0B23EF15F034510F0B28EF49
:1029100015F0152214C0DEFF15C0DDFF1200160EE3
:10292000616E0F019F0E5B6F7B0E606E1200DF50B9
:10293000146E156A0C0E145C000E15581200F72266
:102940000900F5CFB5F00A00F5CFB6F01200FE0E83
:10295000DBCFE6FFAFDEE552E5521200010EE66E78
:10296000E66A000EE66EE66A1200D950020FE96EC2
:10297000DACFEAFFEF501200F76AB525F66EB651CE
:10298000F722080012003251F66EF76AD890F63638
:10299000F7361200A5C0E9FFA6C0EAFF1200040D39
:1029A000F3CF14F0F4CF15F0000E1426020EB1DFB1
:1029B000840E40EF15F05FD8300EEE6E020EED6E15
:1029C00012003CDF020EE1261200020EE66EE66AFD
:1029D000DECFE6FFDDCFE6FF050E10EF14F017DFC8
:1029E0008C0EEF6E26DF840EEF6E120030DFA70E26
:1029F000E926000E12002BDFAD0EE926000E1200B4
:102A00000ADF62EF14F0E66EA5EC17F0146E050E07
:102A1000E15E1450120012DFE6521200FE0BEA369D
:102A2000E96EAD0EE926000E1200FE0BEA36E96EE5
:102A3000A70EE926000E12009BEC0EF0146E060E97
:102A4000E15E14501200EA6ACB0FE96E000E12002C
:102A5000EA6AC80FE96E000E1200E6DEEF50800B46
:102A60001200E2DEE850EF16120094DFEE52080E7C
:102A7000EF6ECAEF14F0020EE926000EEA221200F1
:082A8000D3DEE850EF12120052
:082A8800D9CFE6FFE1CFD9FF31
:102A9000FE0EDB50020804E1860EF66E2F0EB3D058
:102AA000FE0EDB50030804E1870EF66E2F0EABD04E
:102AB000FE0EDB50040804E1880EF66E2F0EA3D044
:102AC000FE0EDB50050804E1890EF66E2F0E9BD03A
:102AD000FE0EDB50060804E18A0EF66E2F0E93D030
:102AE000FE0EDB50070804E18B0EF66E2F0E8BD026
:102AF000FE0EDB50080804E1970EF66E2F0E83D011
:102B0000FE0EDB50090804E1980EF66E2F0E7BD006
:102B1000FE0EDB500A0802E11C0EABD0FE0EDB50AD
:102B20000C0804E1800EF66E2F0E6DD0FE0EDB5009
:102B30000D0804E1810EF66E2F0E65D0FE0EDB50FF
:102B40000E0802E1940E95D0FE0EDB500F0802E154
:102B5000C6D81AD0FE0EDB50100802E1D5D80BD033
:102B6000FE0EDB50110802E1CBD80ED0FE0EDB507A
:102B7000120803E1E4D8800F7CD0FE0EDB5013086E
:102B800005E1F40EF66E2F0ECCD861D0140EB2D83B
:102B90000AE3BAD8A8D807E2FE0EDB50EC0F146E99
:102BA000156A9DD825D0B0D8A5D80DE3C2D89BD83A
:102BB0000AE2FE0EDBCFE6FFA7D8E552E75C146E13
:102BC000156A9ED815D0B5D895D81FE3A5D8F5CFEE
:102BD00017F0BBD8172487D818E2FE0EDBCFE6FF2C
:102BE000B4D8E552E75C146E156AF40EF66E2F0E3B
:102BF000F76E0900F5501424F36E0900F550152006
:102C0000F46EF3CFF6FFF76E22D086D8F5CF16F02C
:102C100090D816246FD81EE37FD8F5CF18F079D856
:102C2000F5CF17F071D817241824040F5CD812E2DE
:102C3000FE0EDBCFE6FF70D8F5CF15F080D8152457
:102C4000E552E75CF76A8C0FF66E2F0EF72208004C
:102C5000F5500FD0FE0EDB507E0803E10001E65177
:102C600008D0FE0EDB507F0803E10001E75101D0E0
:102C7000000EE552E7CFD9FF1200D9CFE6FFE1CF32
:102C8000D9FFE6520001AA0EE66FE76FDF6A7E0EFB
:102C9000DF5C1DE2DFCFE6FFF7DEE5520001E61B59
:102CA000DF28E66EF1DEE5520001E71BE751800BFD
:102CB00008E0D890E637E737010EE613000EE71379
:102CC00003D0D890E637E737020EDF26E0D7E5528B
:102CD000E552E7CFD9FF120024D808001200F00E09
:102CE000F66E2F0E1200F36EFE0EDBCFF4FFF350E4
:102CF000F45C1200146EFE0EDB50D88014541200E7
:102D0000F20EF66E2F0E1200EADFE6DFF550140F1A
:102D10001200F6DF6CEF16F0F40EF66E2F0E6CEF6D
:102D200016F0F76E0900F5500800F5CFF7FFF66EC4
:102D30001200EFDFF5CF15F0E7DF15241200E9DF11
:102D4000F5CF14F0E1DF14241200E3DFF5CF16F025
:062D5000DBDF1624120077
:0A2D5600008040C020A060E0109053
:102D600050D030B070F0088848C828A868E8189893
:102D700058D838B878F8048444C424A464E414947B
:102D800054D434B474F40C8C4CCC2CAC6CEC1C9C33
:102D90005CDC3CBC7CFC028242C222A262E2129257
:102DA00052D232B272F20A8A4ACA2AAA6AEA1A9A33
:102DB0005ADA3ABA7AFA068646C626A666E616961B
:102DC00056D636B676F60E8E4ECE2EAE6EEE1E9ED3
:102DD0005EDE3EBE7EFE018141C121A161E1119115
:102DE00051D131B171F1098949C929A969E9199903
:102DF00059D939B979F9058545C525A565E51595EB
:102E000055D535B575F50D8D4DCD2DAD6DED1D9DA2
:102E10005DDD3DBD7DFD038343C323A363E31393C6
:102E200053D333B373F30B8B4BCB2BAB6BEB1B9BA2
:102E30005BDB3BBB7BFB078747C727A767E717978A
:102E400057D737B777F70F8F4FCF2FAF6FEF1F9F42
:062E50005FDF3FBF7FFFC2
:0A2E5600060EF66E100EF76E000E69
:102E6000F86E00010900F550D96F0900F550DA6FCE
:102E700003E1D96701D03DD00900F550D46F0900B6
:102E8000F550D56F0900F550D66F09000900F550CF
:102E9000E96E0900F550EA6E090009000900F550D5
:102EA000D76F0900F550D86F09000900F6CFDBF0A5
:102EB000F7CFDCF0F8CFDDF0D4C0F6FFD5C0F7FFD8
:102EC000D6C0F8FF0001D75302E1D85307E009004C
:102ED000F550EE6ED707F8E2D807F9D7DBC0F6FF5A
:102EE000DCC0F7FFDDC0F8FF0001D907000EDA5B98
:042EF000BFD7120036
:0C2EF400D9CFE6FFDACFE6FFFA0EE3CFFD
:102F0000D9FFFB0EE3CFDAFFFC0EE3CFE9FFFD0EA6
:102F1000E3CFEAFFE9CFF3FFEACFF4FFF80EE35087
:102F200003E1F90EE35008E0F80EE30602E2F90EC1
:102F3000E306DECFEEFFF2D7FF0EE3CFDAFFE55276
:102F4000FF0EE3CFD9FFE5521200FE0EE3CFE9FFFB
:102F5000FF0EE3CFEAFFE9CFF3FFEACFF4FFFB0E6A
:102F6000E35003E1FC0EE35009E0FB0EE30602E24E
:0E2F7000FC0EE306FD0EE350EE6EF1D71200EC
:022F7E0012013E
:102F8000100100000008FB090160000401020301B8
:102F90000902200001010080280904000002FFFF4F
:102FA000FF00070581024000010705020240000101
:102FB000040309040E0341006C00740065007200F4
:102FC000610018035500530042002D0042006C00C0
:102FD000610073007400650072001203300030005D
:102FE000300030003000300030003000902FB02F23
:062FF000B42FC22FDA2FFE
:0A2FF600000EF36E00EE00F0030E73
:1030000001D81200EA6002D0EE6AFCD7F350E96002
:063010001200EE6AFCD77D
:0A30160010EE60F020EE60F0F86AA2
:103020000A9C2BEC17F007EC08F090EC0AF0FBD7A9
:0230300012008C
:020000040030CA
:0100000000FF
:0100010032CC
:0100020001FC
:010003001EDE
:0100050000FA
:0100060001F8
:0100080003F4
:01000900C036
:01000A0003F2
:01000B00E014
:01000C0003F0
:01000D0040B2
:00000001FF
