:020000040000FA
:0600000000EF1CF01200ED
:0600080004EF08F01200F5
:060018000CEF08F01200DD
:0608000000EF1CF01200E5
:060808001FEF11F01200C9
:0608180030EF11F01200A8
:0610000000EF1CF01200DD
:021006000000E8
:061008001FEF11F01200C1
:02100E001200CE
:0610180030EF11F01200A0
:02101E00D9CF28
:10102000E6FFE1CFD9FFE652A0940F015F6B626A41
:10103000536B020EE66EE66AE66A540EE66E0F0E1B
:10104000E66E9AEC1BF0146E050EE15E1450160E5F
:10105000616E0F019F0E5B6F7B0E606EDF6ADF506B
:10106000146E156A0C0E145C000E155810E2DF5059
:10107000040DF3CFE9FFF4CFEAFF000EE926020EDC
:10108000EA22EE6AEE6AEE6AEE6ADF2AE8D7648C3C
:101090000F015C6B6498649C62A607D062960001A5
:1010A000B76BBC6BBD6BBE6BF7D70001010ED06F89
:1010B000D16FD26BD36BC46BDF6A030EDF5C26E2A9
:1010C000EA6ADF34FE0BEA36E96EAD0EE926000E61
:1010D000EA22EE6AED6AEA6ADF34FE0BEA36E96E6E
:1010E000A70EE926000EEA22EE6AED6ADF50EA6AF0
:1010F000C80FE96E000EEA22EF6ADF50EA6ACB0FF2
:10110000E96E000EEA22EF6ADF2AD7D70001080E47
:10111000AD6F020EAE6F0F01160E536F0201300E4F
:10112000026F020E036F080E016F840E006F000144
:10113000A16BA06BE552E552E7CFD9FF1200D9CFE2
:10114000E6FFE1CFD9FFE6520001A05110E1646A49
:10115000606A160E616E0F019F0E5B6F7B0E606EF4
:1011600064B602D06486FCD70001010EA06FA00512
:1011700008E164BA06D0626A606A60806088020E24
:10118000A06F6250040B05E06050040B02E0629413
:10119000C7D864B257D06250010B08E06050010B11
:1011A00005E03DDF0001040EA06F62906250100B5D
:1011B00005E06050100B02E09ED8629862AC19D036
:1011C00060AC0FD0010EE66EE66A000EE66EE66ACF
:1011D000730EE66EE66AD8EC17F0146E060EE15E4A
:1011E0001450629C0001CE5101E0CE07CE5101E1C6
:1011F0004DDB6250200B04E06050200B01E061D811
:101200006250020B14E06050020B11E0010EE66E1A
:10121000E66A000EE66EE66AE6687F0EE66ED8ECD9
:1012200017F0146E060EE15E14500F015F6B040E92
:101230000001E76EA019E8AE02D0E73402D0E75013
:10124000A05D02E2A19438D060A635D0DF6A040E1A
:10125000DF5C31E262A62FD063CFC5F00001C5513B
:10126000780BE842E842E842C66F6296C5B506D000
:10127000C651EA6ACB0FE96E000E05D0C651EA6A84
:10128000C80FE96E000EEA22EF70C65102E15FD886
:1012900010D0000EE66EE66AC50EE66E000EE66E33
:1012A000720EE66EE66AD8EC17F0146E060EE15E7A
:1012B0001450DF2ACCD7A194E552E552E7CFD9FFED
:1012C00012000F0153A115D0A3C0E9FFA4C0EAFF8B
:1012D000EF5080080DE1ADC0E9FFAEC0EAFFEF506E
:1012E000840806E1A3C0E9FFA4C0EAFF8C0EEF6EFC
:1012F0005391629A12006084629864820001010E28
:10130000C46F000EE66EE66AE66EE66A750EE66E7D
:10131000E66AD8EC17F0146E060EE15E1450120067
:101320000001C46B000EE66EE66AE66EE66A740EB5
:10133000E66EE66AD8EC17F0146E060EE15E145005
:101340006492609462A402D06294FCD71200D9CF58
:10135000E6FFE1CFD9FFE65200012D0ECE6FFD0E64
:10136000C51553E17E0EC515E8407F0B040DF3CF84
:10137000A3F0F4CFA4F0000EA327020EA423A3C071
:10138000A5F0A4C0A6F0A575A3C0E9FFA4C0EAFF1C
:10139000EF503C0BE842E8420D0835E1DF6A080EE9
:1013A000DF5C23E2A3C0E9FFA4C0EAFF020EE92646
:1013B000000EEA22EE50EFCFEAFFE96EEF50E66E44
:1013C000DF50EA6A300FE96E020EEA22E552E7507A
:1013D000EF6EA3C0E9FFA4C0EAFF020EE926000EEB
:1013E000EA22EE2AEF22DF2ADAD7A3C0E9FFA4C05F
:1013F000EAFF020EE926000EEA22300EEE6E020E21
:10140000ED6E0DD807D03AD805D0FD0EC5150408ED
:1014100001E159D8E552E552E7CFD9FF12000001AA
:10142000B36BCF6BD26BD36BC76BB46BADC0E9FF43
:10143000AEC0EAFFEF9EAD75ADC0E9FFAEC0EAFFFA
:10144000EF9EAD75A5C0E9FFA6C0EAFFEF9EB76BA2
:10145000B86BB96BBC6BBD6BBE6B8FD8000EE66E04
:10146000E66AE66EE66A030EE66EE66AD8EC17F008
:10147000146E060EE15E14508CEF0DF0020E0001AA
:10148000B45D02E14CEF0EF0B46BC7511AE1A5C098
:10149000E9FFA6C0EAFFEE52080EEF6EA5C0E9FF15
:1014A000A6C0EAFF020EE926000EEA22300EEE6E1A
:1014B000020EED6EA5C0E9FFA6C0EAFF8C0EEF6E2E
:1014C0001200C76B1200D9CFE6FFE1CFD9FFE65279
:1014D000ADC0E9FFAEC0EAFFEF50400B01E0010EE6
:1014E000DF6E0001AD75080EA05D0BE132C25CFF3E
:1014F0000F015C5103E00001100E02D00001040E48
:10150000A06FB40526E1ADC0E9FFAEC0EAFF020E50
:10151000E926000EEA22380EEE6E020EED6E5DDB5D
:10152000020E0001B35D06E1ADC0E9FFAEC0EAFF07
:10153000840E0DD0DF5006E1ADC0E9FFAEC0EAFF7A
:10154000C80E05D0ADC0E9FFAEC0EAFF880EEF6E51
:101550000FD0BCAF0CD0BF51C01107E005D0C0C048
:10156000FAFF0001BF51F96EFADF0001BC9FB46BB6
:10157000E552E552E7CFD9FF120002013051600B6E
:10158000E842E842E842E842E842000901E012008D
:1015900031510C0A50E00B0A3FE00C0A31E0010A1D
:1015A00022E00B0A1EE0020A1CE0030A18E0080A07
:1015B00010E0010A0CE00F0A08E0030A01E0120043
:1015C0000001B78F080EA06F1200D5EF0CF0EBEF03
:1015D0000EF00001A10EB56F000EB66F0CD032EF09
:1015E0000DF01CEF0BF034510001B56FB66BA20E7D
:1015F000B527000EB623B781010EB86FB78F120062
:101600000001B78F02013451EA6AA20FE96E000EA1
:10161000EA2232C2EFFF1200000EE66EE66AE66EC4
:10162000E66A020EE66EE66AD8EC17F0146E060E55
:10163000E15E145012001200D9CFE6FFE1CFD9FFCE
:10164000030EE1260201320510E130511F0B0009A3
:101650000CE10001B78F030E0201315D04E10001CE
:10166000010EC36F02D00001C36B0201325101E0D1
:1016700003D130511F0B020801E0FED034510F0B93
:10168000000901E1F9D034510F0B020801E2F4D056
:10169000200E0001A05D01E0EFD0B78F020134BF42
:1016A00016D034510F0BE96EEA6AD890E936EA3663
:1016B000A70EE926000EEA22EECFDEFFEDCFDDFF1A
:1016C00034510F0BEA6ACB0FE96E000E15D034517E
:1016D0000F0BE96EEA6AD890E936EA36AD0EE926D4
:1016E000000EEA22EECFDEFFEDCFDDFF34510F0B0F
:1016F000EA6AC80FE96E000EEA22020EEFCFDBFFA6
:10170000D950020FE96EDACFEAFFEF50010B03E187
:10171000000EDF9401D0DF8434BF0BD034510F0BA7
:10172000E96EEA6AD890E936EA36A70EE926000E95
:101730000AD034510F0BE96EEA6AD890E936EA36DE
:10174000AD0EE926000EEA22DECFEEFFDDCFEDFF83
:10175000030E315D20E1DECFE9FFDDCFEAFFEF5080
:10176000800B11E034BF07D034510F0BEA6ACB0F66
:10177000E96E000E06D034510F0BEA6AC80FE96E0D
:10178000000EEA22EF82840EDECFE9FFDDCFEAFF12
:10179000E850EF1271D0DF74DECFE9FFDDCFEAFF52
:1017A000EF50800B1BE0DECFE9FFDDCFEAFFEF9EBD
:1017B000DECFE9FFDDCFEAFFEF8C020EE66EE66AD0
:1017C000DECFE6FFDDCFE6FF050EE66EE66AD8EC7B
:1017D00017F0146E060EE15E145005D0DECFE9FF5F
:1017E000DDCFEAFFEF8CDF74D950020FE96EDACF5C
:1017F000EAFFEF50020B0EE1DECFE9FFDDCFEAFF9B
:10180000EF50800B32E0DECFE9FFDDCFEAFFEF5093
:10181000040B2BE1020134BF07D034510F0BEA6AED
:10182000CB0FE96E000E06D034510F0BEA6AC80FD9
:10183000E96E000EEA22EF923B0E146EDECFE9FF56
:10184000DDCFEAFFE850EF16020EE66EE66ADECF65
:10185000E6FFDDCFE6FF050EE66EE66AD8EC17F090
:10186000146E060EE15E145007D03B0EDECFE9FF8A
:10187000DDCFEAFFE850EF16030EE15C02E2E16A19
:10188000E552E16EE552E7CFD9FF12000001D051D9
:101890004DE1010ED06FD15149E1010ED16F020E21
:1018A000B45D0DE1ADC0E9FFAEC0EAFFEE52EF6AF4
:1018B000ADC0E9FFAEC0EAFFC80EEF6E1200B4057E
:1018C00035E1C76BA3C0E9FFA4C0EAFFEE52080EE2
:1018D000EF6EA3C0E9FFA4C0EAFF020EE926000EE6
:1018E000EA22300EEE6E020EED6EA3C0E9FFA4C038
:1018F000EAFF840EEF6E010EC76FA5C0E9FFA6C018
:10190000EAFFEE52080EEF6EA5C0E9FFA6C0EAFF9F
:10191000020EE926000EEA22300EEE6E020EED6E89
:10192000A5C0E9FFA6C0EAFF800EEF6E120000011D
:10193000D26BD36B020EB45D18E1A5C0E9FFA6C05F
:10194000EAFFEE52080EEF6EA5C0E9FFA6C0EAFF5F
:10195000020EE926000EEA22380EEE6E020EED6E41
:10196000A5C0E9FFA6C0EAFF1DD0B8510201365D4F
:101970000001B9510201375904E236C2B8F037C24A
:10198000B9F02BD9ADC0E9FFAEC0EAFF020EE926DF
:10199000000EEA22380EEE6E020EED6EADC0E9FFCB
:1019A000AEC0EAFFC80EEF6E1200800E0201305D7D
:1019B00058E10001C00EB76F02013351030A2FE056
:1019C000010A09E0030A4BE10001680EB56F370E0A
:1019D000B66F120E3ED03251F66EF76AD890F636D8
:1019E000F736D60EF626370EF7220900F5CFB5F0FA
:1019F0000A00F5CFB6F0020E0001F76AB525F66EC3
:101A0000B651F7220800F5CFB8F0030EF76AB525F6
:101A1000F66EB651F7220800F5CFB9F01200040EA9
:101A2000325D1AE23251F66EF76AD890F636F73622
:101A3000D80EF626370EF7220900F5CFB5F00A00CA
:101A4000F5CFB6F0B5C0F6FFB6C0F7FF0800F55009
:101A50000001B86FB96B12000001B76B12000001F2
:101A6000B76B1200D9CFE6FFE1CFD9FF020EE12616
:101A70000201386B396B30511F0B020A11E0030A67
:101A80000CE0010A35E10001B78F02013881000145
:101A9000C3052EE1020138832BD00001B78F28D077
:101AA0000001B78F020134BF0BD034510F0BE96E28
:101AB000EA6AD890E936EA36A70EE926000E0AD07F
:101AC00034510F0BE96EEA6AD890E936EA36AD0E6A
:101AD000E926000EEA22EECFDEFFEDCFDDFFDECFFE
:101AE000E9FFDDCFEAFFEF50040B02E0010E386F93
:101AF0000001B7AF07D0380EB56F020EB66FB781D1
:101B0000020EB86F020EE15C02E2E16AE552E16E9C
:101B1000E552E7CFD9FF120064980001B7BF2BD080
:101B2000BCAF09D0020EB46FD35101E100DF000158
:101B3000D16BD06B1200A5C0E9FFA6C0EAFFEE5240
:101B4000080EEF6EA5C0E9FFA6C0EAFF020EE92667
:101B5000000EEA22300EEE6E020EED6EA5C0E9FF19
:101B6000A6C0EAFF8C0EEF6EADC0E9FFAEC0EAFF83
:101B7000840EEF6E1200020130AF0DD00001010E95
:101B8000B46FD25101E1D3DE0001D16BD06BCF51E4
:101B900023E146EF0CF00001020EB46FA5C0E9FF8F
:101BA000A6C0EAFFEE52080EEF6EA5C0E9FFA6C080
:101BB000EAFF020EE926000EEA22300EEE6E020E59
:101BC000ED6EA5C0E9FFA6C0EAFF840EEF6ED16BF3
:101BD000D06BCF5101E15ADE1200D9CFE6FFE1CF41
:101BE000D9FFE652080EDF6E0001B85D000EB9594C
:101BF0000AE2B8C0DFFFB35102E1010E03D0B30522
:101C000002E1020EB36FDF50156AE850B85DB86F9D
:101C10001550B959B96FADC0E9FFAEC0EAFFEE5239
:101C2000DFCFEFFF380EC16F020EC26FB7B118D011
:101C3000DF502DE0B5C0F6FFB6C0F7FFB52B000EA4
:101C4000B6230800F550E66EC1C0E9FFC2C0EAFF46
:101C5000C12B000EC223E552E750EF6EDF06E8D736
:101C6000DF5015E0B5C0E9FFB6C0EAFFB52B000EA6
:101C7000B623EF50E66EC1C0E9FFC2C0EAFFC12B38
:101C8000000EC223E552E750EF6EDF06E9D7E552BA
:101C9000E552E7CFD9FF1200D9CFE6FFE1CFD9FF58
:101CA000020EE126A3C0E9FFA4C0EAFFEE52EFCF87
:101CB000DFFFDFCF14F014500001BD5D000EBE59F0
:101CC00002E2BDC0DFFFDF50146E156AE850BD5D53
:101CD000BD6F1550BE59BE6F010EDB6ADF50F36E4B
:101CE000010EDBCFF4FFF350F45C16E2010EDB5083
:101CF000EA6A380FE96E020EEA22EF50E66EBAC0C9
:101D0000E9FFBBC0EAFFBA2B000EBB23E552E75048
:101D1000EF6E010EDB2AE2D7000ED880BD55000E13
:101D2000BE5527E2A5C0E9FFA6C0EAFFEE52080EA5
:101D3000EF6EA5C0E9FFA6C0EAFF020EE926000E7D
:101D4000EA22380EEE6E020EED6EA3C0E9FFA4C0CB
:101D5000EAFFEF50400B06E1A5C0E9FFA6C0EAFF8D
:101D6000C80E05D0A5C0E9FFA6C0EAFF880EEF6E39
:101D700028D0A5C0E9FFA6C0EAFFEE52080EEF6E1C
:101D8000A5C0E9FFA6C0EAFF020EE926000EEA227E
:101D9000300EEE6E020EED6EA5C0E9FFA6C0EAFFA2
:101DA000840EEF6EBF51C01107E005D0C0C0FAFF2E
:101DB0000001BF51F96EFADF0001BC9FCF5101E174
:101DC00065DD020EE15C02E2E16AE552E16EE55298
:101DD000E7CFD9FF1200D9CFE6FFE1CFD9FFE65216
:101DE0000001B78F020EE66EE66AE66A540EE66EF2
:101DF0000F0EE66E9AEC1BF0146E050EE15E1450A9
:101E0000DF6ADF50146E156A0C0E145C000E155854
:101E100010E2DF50040DF3CFE9FFF4CFEAFF000E2C
:101E2000E926020EEA22EE6AEE6AEE6AEE6ADF2A1E
:101E3000E8D7648C010EE66EE66AE66AA20EE66EEC
:101E4000000EE66E9AEC1BF0146E050EE15E145067
:101E5000649C0001080EAD6F020EAE6F000EA36F02
:101E6000020EA46FA3C0A5F0A66F32C2A1F0A151CB
:101E700002E1100E12D0010EE66EE66AA10EE66EC9
:101E8000000EE66E010EE66EE66AD8EC17F0146EF0
:101E9000060EE15E14500001200EA06FE552E552DF
:101EA000E7CFD9FF1200D9CFE6FFE1CFD9FF020E6D
:101EB000E126000EDE6E020EDD6EFD0EDB50E82424
:101EC000166EFE0EDB50040DF3501624040DF4CFF5
:101ED00015F0D9CFE9FFDACFEAFFF350EE2615501F
:101EE000ED22DECFE9FFDDCFEAFFEF9EFD0EDB50F6
:101EF0000AE1FE0EEA6ADB34FE0BEA36E96EA70E53
:101F0000E926000E09D0FE0EEA6ADB34FE0BEA3643
:101F1000E96EAD0EE926000EEA22DECFEEFFDDCF40
:101F2000EDFFDECFE9FFDDCFEAFFEF9CDECFE9FF7B
:101F3000DDCFEAFF040EE926000EEA22EF8C020E46
:101F4000E15C02E2E16AE552E16EE552E7CFD9FFDA
:101F50001200D9CFE6FFE1CFD9FF020EE126FD0E38
:101F6000DBA407D0E66AFE0EDBCFE6FF9CDFE5527E
:101F7000E552FD0EDBA208D0010EE66EFE0EDBCFB1
:101F8000E6FF91DFE552E552FE0EDB50156A530F76
:101F9000146E0F0E152214C0DEFF15C0DDFFDECF5C
:101FA000E9FFDDCFEAFFFD0EDBCFEFFF020EE15CC4
:101FB00002E2E16AE552E16EE552E7CFD9FF120095
:101FC000D9CFE6FFE1CFD9FF020EE126FE0EDB50AE
:101FD00020E1A5C0E9FFA6C0EAFFEE52080EEF6EB1
:101FE000A5C0E9FFA6C0EAFF020EE926000EEA221C
:101FF000300EEE6E020EED6EA5C0E9FFA6C0EAFF40
:102000008C0EEF6EADC0E9FFAEC0EAFF840EEF6E3E
:102010003BD0FD0EDB50E824166EFE0EDB50040DA7
:10202000F3501624040DF3CF14F0F4CF15F0000E86
:102030001426020E152214C0DEFF15C0DDFF840E2B
:10204000DECFE9FFDDCFEAFFE850EF12FD0EDB50F7
:10205000E824166EFE0EDB50040DF3501624010F1B
:10206000040DF3CF14F0F4CF15F0000E1426020E79
:10207000152214C0DEFF15C0DDFF840EDECFE9FFA0
:10208000DDCFEAFFE850EF12020EE15C02E2E16A06
:10209000E552E16EE552E7CFD9FF1200D9CFE6FF56
:1020A000E1CFD9FF020EE126FD0EDB500AE0FE0E65
:1020B000EA6ADB34FE0BEA36E96EAD0EE926000E65
:1020C00009D0FE0EEA6ADB34FE0BEA36E96EA70E93
:1020D000E926000EEA22EECFDEFFEDCFDDFFD9CFFD
:1020E000E9FFDACFEAFFEE50ED1003E1F36AF46A9C
:1020F00044D0DECFE9FFDDCFEAFF020EE926000E75
:10210000EA22FB0EDBCFEEFFFC0EDBCFEDFFDECFD6
:10211000E9FFDDCFEAFFEE52FA0EDBCFEFFF400E14
:10212000DECFE9FFDDCFEAFFE850EF16880EDECF05
:10213000E9FFDDCFEAFFE850EF12FD0EDB500AE0C9
:10214000FE0EEA6ADB34FE0BEA36E96EAD0EE926D6
:10215000000E09D0FE0EEA6ADB34FE0BEA36E96EA9
:10216000A70EE926000EEA22EF74DECF14F0DDCFD1
:1021700015F014C0F3FF15C0F4FF020EE15C02E29B
:10218000E16AE552E16EE552E7CFD9FF1200D9CFFF
:10219000E6FFE1CFD9FF64A84ED0FE0EEA6ADB3439
:1021A000FE0BEA36E96EAD0EE926000EEA22EE508D
:1021B000EFCFEAFFE96E400EEE16EE6AEE6AEE6AC7
:1021C000FE0EEA6ADB34FE0BEA36E96EAD0EE92656
:1021D000000EEA22EE50EFCFEAFFE96EEE7CFE0E33
:1021E000EA6ADB34FE0BEA36E96EAD0EE926000E34
:1021F000EA22EF74400E146EFE0EEA6ADB34FE0B28
:10220000EA36E96EAD0EE926000EEA22EE50EFCF77
:10221000EAFFE96E1450EF16FE0EEA6ADB34FE0B9D
:10222000EA36E96EAD0EE926000EEA22EE50EFCF57
:0E223000EAFFE96EEF7CE552E7CFD9FF12001E
:02223E00DACFF5
:10224000E4FFE6529EA008D00001E42BE4511608FA
:1022500002E28B74E46B9E90E552E5CFDAFF110049
:10226000D8CFE4FFE0CFE4FFE46EDACFE4FFE6523C
:10227000E552E5CFDAFFE550E5CFE0FFE5CFD8FF47
:102280001000D9CFE6FFE1CFD9FF020EE126400EC4
:10229000136E0B6A0C6A530E0D6EC950F76A400F2D
:1022A000F66E350EF7220800F5500E6E0B50EA6AF6
:1022B000000FE96E010EEA220DC0EFFF0B2A0B5052
:1022C000EA6A000FE96E010EEA220EC0EFFF0B2A48
:1022D0000DB08B880DA08B988B8000008B900DB279
:1022E0008B880DA28B988B8000008B900DB48B880F
:1022F0000DA48B988B8000008B900DB68B880DA65B
:102300008B988B8000008B900DB88B880DA88B98D4
:102310008B8000008B900DBA8B880DAA8B988B80D8
:1023200000008B900DBC8B880DAC8B988B800000CF
:102330008B900DBE8B880DAE8B988B8000008B90A0
:102340000E6A0DB08B880DA08B9881B80E808B80A3
:1023500000008B900DB28B880DA28B9881B80E82F5
:102360008B8000008B900DB48B880DA48B9881B866
:102370000E848B8000008B900DB68B880DA68B98F9
:1023800081B80E868B8000008B900DB88B880DA8CD
:102390008B9881B80E888B8000008B900DBA8B884B
:1023A0000DAA8B9881B80E8A8B8000008B900DBC93
:1023B0008B880DAC8B9881B80E8C8B8000008B9035
:1023C0000DBE8B880DAE8B9881B80E8E8B80000071
:1023D0008B900E6A0DB08B880DA08B9881BA0E8001
:1023E0008B8000008B900DB28B880DA28B9881BAE8
:1023F0000E828B8000008B900DB48B880DA48B987F
:1024000081BA0E848B8000008B900DB68B880DA650
:102410008B9881BA0E868B8000008B900DB88B88CC
:102420000DA88B9881BA0E888B8000008B900DBA16
:102430008B880DAA8B9881BA0E8A8B8000008B90B6
:102440000DBC8B880DAC8B9881BA0E8C8B800000F4
:102450008B900DBE8B880DAE8B9881BA0E8E8B80C3
:1024600000008B900C50146E156A0C500B5C166EAD
:10247000176AFF0ED8801656000E1756010E162644
:10248000000E172217501518E8AE02D0153404D0EC
:102490001450165C155017581CE30C500B5CE66E7C
:1024A000E66A0C50156A000F146E010E152214C056
:1024B000E6FF15C0E6FFC20EE66E020EE66E6FEC9A
:1024C0001BF0166E060EE15E16500C500B5C0C26CF
:1024D0003FD00C50146E156AFF0ED8801456000EB3
:1024E0001556010E14240E6E0E50E66EE66A0C5060
:1024F000156A000F146E010E152214C0E6FF15C0F8
:10250000E6FFC20EE66E020EE66E6FEC1BF0166E74
:10251000060EE15E16500C500B5CD8800E54E66E31
:10252000E66A000EE66E010EE66E0E50156AC20FE8
:10253000146E020E152214C0E6FF15C0E6FF6FEC04
:102540001BF0166E060EE15E16500C500B5C0C264E
:102550000B6A0D6A0B50EA6A000FE96E010EEA225F
:102560000DC0EFFF0B2A0D50146E156AFF0E1418E4
:1025700001E1155001E102D00D2AECD7640E0B6E7B
:10258000BE0E0C6E0C50146E156A153404E2145015
:10259000C208000E15541AE33E0EE66EE66A0C50B1
:1025A000156A000F146E010E152214C0E6FF15C047
:1025B000E6FFC20EE66E020EE66E6FEC1BF0166EC4
:1025C000060EE15E16503E0E0C263DD00C50146EE9
:1025D000156AFF0ED8801456000E1556010E1424ED
:1025E0000E6E0E50E66EE66A0C50156A000F146E01
:1025F000010E152214C0E6FF15C0E6FFC20EE66EFE
:10260000020EE66E6FEC1BF0166E060EE15E1650C3
:102610003E0ED8800E54E66EE66A000EE66E010E9F
:10262000E66E0E50156AC20F146E020E152214C00B
:10263000E6FF15C0E6FF6FEC1BF0166E060EE15EBE
:1026400016503E0E0C260C50146E156A153404E21A
:102650001450C208000E15541AE33E0EE66EE66AE8
:102660000C50156A000F146E010E152214C0E6FFFF
:1026700015C0E6FFC20EE66E020EE66E6FEC1BF0B2
:10268000166E060EE15E16503E0E0C263DD00C5026
:10269000146E156AFF0ED8801456000E1556010EE2
:1026A00014240E6E0E50E66EE66A0C50156A000F8A
:1026B000146E010E152214C0E6FF15C0E6FFC20E0F
:1026C000E66E020EE66E6FEC1BF0166E060EE15E15
:1026D00016503E0ED8800E54E66EE66A000EE66E88
:1026E000010EE66E0E50156AC20F146E020E152210
:1026F00014C0E6FF15C0E6FF6FEC1BF0166E060E69
:10270000E15E16503E0E0C261350132AEA6A400F63
:10271000E96E020EEA22EF50F76A400FF66E350EB0
:10272000F7220800F5500E6EC950F76A400FF66E9A
:10273000350EF7220800F550E66E0B50EA6A000FDE
:10274000E96E010EEA22E552E750EF6E0B2A000017
:10275000020EE15C02E2E16AE552E16EE552E7CF8A
:10276000D9FF12007E6A7F6A766A926A936A946AD7
:102770009388938A1A0E8B6E800ED56EF29A400E55
:10278000C76EC66A948E938CC69A94909498050EE0
:10279000CA6E3F0EBD140009BD6EF00EBD140C09CB
:1027A000BD6E949A3C0ECB6E1E0EBE6E010EB96EBF
:1027B000CF6ACE6ACD8ACD989D80CD80F28CF28E84
:1027C00094948B940201310EC06F0201600EC16FB0
:1027D00071EC1AF00FEC08F09FEC08F0200E0001ED
:1027E000E76EA019E8AE02D0E73402D0E750A05D52
:1027F00003E36450020B02E08A9E4DD30001E251D4
:10280000E31102E1000E08D0E2C0E9FFE3C0EAFFF5
:10281000EF50800B01E0010E000901E068D10C507F
:102820000B5C0D6E3E0E146E0D50D880145401E2F8
:102830008CD00C50146E156A153404E21450C20882
:10284000000E15541AE33E0EE66EE66A0C50156A49
:10285000000F146E010E152214C0E6FF15C0E6FF2E
:10286000C20EE66E020EE66E6FEC1BF0166E060EE2
:10287000E15E16503E0E0C263DD00C50146E156ACB
:10288000FF0ED8801456000E1556010E14240E6E3D
:102890000E50E66EE66A0C50156A000F146E010EBB
:1028A000152214C0E6FF15C0E6FFC20EE66E020E4A
:1028B000E66E6FEC1BF0166E060EE15E16503E0ED5
:1028C000D8800E54E66EE66A000EE66E010EE66EE5
:1028D0000E50156AC20F146E020E152214C0E6FFC8
:1028E00015C0E6FF6FEC1BF0166E060EE15E16508B
:1028F0003E0E0C26AFC0E2F0B0C0E3F0E2C0E9FF4C
:10290000E3C0EAFF020EE926000EEA22C00EEE6ED8
:10291000020EED6EE2C0E9FFE3C0EAFFEE52400EA8
:10292000EF6E400E146EE2C0E9FFE3C0EAFF145000
:10293000EF16880E146EE2C0E9FFE3C0EAFF145000
:10294000EF120001AF75F284D2D00D5001E19FD09B
:102950000C50146E156A0D50166E176AFF0ED88053
:102960001656000E1756010E1626000E1722175087
:102970001518E8AE02D0153404D01450165C15506A
:1029800017581AE30D50E66EE66A0C50156A000FF0
:10299000146E010E152214C0E6FF15C0E6FFC20E2C
:1029A000E66E020EE66E6FEC1BF0166E060EE15E32
:1029B00016500D500C263CD00C50146E156AFF0EAC
:1029C000D8801456000E1556010E14240E6E0E50AB
:1029D000E66EE66A0C50156A000F146E010E1522A1
:1029E00014C0E6FF15C0E6FFC20EE66E020EE66EEC
:1029F0006FEC1BF0166E060EE15E16500E500D5C6D
:102A0000E66EE66A000EE66E010EE66E0E50156A80
:102A1000C20F146E020E152214C0E6FF15C0E6FFA9
:102A20006FEC1BF0166E060EE15E16500D500C2674
:102A3000AFC0E2F0B0C0E3F0E2C0E9FFE3C0EAFFFC
:102A4000020EE926000EEA22C00EEE6E020EED6EB8
:102A5000020E0D24E66EE2C0E9FFE3C0EAFFEE528B
:102A6000E552E750EF6E400E146EE2C0E9FFE3C09E
:102A7000EAFF1450EF16880E146EE2C0E9FFE3C0BF
:102A8000EAFF1450EF120001AF75F28430D0F2A4C7
:102A90002ED0150ED76EA00ED66EF294AFC0E2F017
:102AA000B0C0E3F0E2C0E9FFE3C0EAFF020EE926AE
:102AB000000EEA22C00EEE6E020EED6EE2C0E9FFDD
:102AC000E3C0EAFFEE52020EEF6E400E146EE2C05B
:102AD000E9FFE3C0EAFF1450EF16880E146EE2C05F
:102AE000E9FFE3C0EAFF1450EF120001AF750F5089
:102AF00036E112BE1AD00001DE51DF1102E1000EF4
:102B000008D0DEC0E9FFDFC0EAFFEF50800B01E034
:102B1000010E000909E1DEC0E9FFDFC0EAFFEE5265
:102B2000EF500F6E136A12821AD00001E051E111CA
:102B300002E1000E08D0E0C0E9FFE1C0EAFFEF507B
:102B4000800B01E0010E00090AE1E0C0E9FFE1C0ED
:102B5000EAFFEE52EF500F6E400E136E12820B50D2
:102B60000C5CFF0F146E0F50145C01E235D60F5051
:102B700001E133D18A9E105061E094889480C68A26
:102B8000939C949E1350132AEA6A400FE96E020E3A
:102B9000EA22EF50F76A400FF66E350EF722080072
:102BA000F5500D6E12B019D00D50C96E1350132A86
:102BB000EA6A400FE96E020EEA22EF50F76A400F10
:102BC000F66E350EF7220800F5500D6E10060F0652
:102BD000105002E00F50E8E12AD00D50C96E13509A
:102BE000132AEA6A400FE96E020EEA22EF50F76AF2
:102BF000400FF66E350EF7220800F5500D6EC950E5
:102C0000F76A400FF66E350EF7220800F5500E6E8B
:102C10000B50EA6A000FE96E010EEA220EC0EFFFC8
:102C20000B2A10060F06105002E00F50D6E11306D3
:102C3000948E938CC69A94909498CCD0115001E1C4
:102C400098D012B034D094889480C68A939C949E75
:102C50001350132AEA6A400FE96E020EEA22EF507F
:102C6000F76A400FF66E350EF7220800F5500D6E2C
:102C70000D50C96E1350132AEA6A400FE96E020E16
:102C8000EA22EF50F76A400FF66E350EF722080081
:102C9000F5500D6E11060F06115002E00F50E8E1DD
:102CA0001306948E938CC69A9490949861D0135086
:102CB000132AEA6A400FE96E020EEA22EF500D6E07
:102CC0000E6A0DB08B880DA08B9881BA0E808B8018
:102CD00000008B900DB28B880DA28B9881BA0E826A
:102CE0008B8000008B900DB48B880DA48B9881BADB
:102CF0000E848B8000008B900DB68B880DA68B9870
:102D000081BA0E868B8000008B900DB88B880DA841
:102D10008B9881BA0E888B8000008B900DBA8B88BF
:102D20000DAA8B9881BA0E8A8B8000008B900DBC07
:102D30008B880DAC8B9881BA0E8C8B8000008B90A9
:102D40000DBE8B880DAE8B9881BA0E8E8B800000E5
:102D50008B900B50EA6A000FE96E010EEA220EC05A
:102D6000EFFF0B2A11060F06115002E00F509FE1F2
:102D700031D01350132AEA6A400FE96E020EEA229C
:102D8000EF500D6E0DBC12800DAC12900DAE0DD03B
:102D90008B908BA604D03F0E0D14106E03D03F0E07
:102DA0000D14116E0F0616D013D00D508B6E12A09D
:102DB0000ED00E6A81BA0E8281B80E800B50EA6A7C
:102DC000000FE96E010EEA220EC0EFFF0B2A0F067C
:102DD0000F50CFE10F5001E0CED61250020B5BE056
:102DE0000F5059E18A8E12BE2BD0ABC0DEF0ACC0C2
:102DF000DFF0DEC0E9FFDFC0EAFF020EE926000EC9
:102E0000EA22400EEE6E020EED6EDEC0E9FFDFC07C
:102E1000EAFFEE52400EEF6E400E146EDEC0E9FF88
:102E2000DFC0EAFF1450EF16880E146EDEC0E9FF13
:102E3000DFC0EAFF1450EF120001AB75127E2AD0FA
:102E4000ABC0E0F0ACC0E1F0E0C0E9FFE1C0EAFFF8
:102E5000020EE926000EEA22800EEE6E020EED6EE4
:102E6000E0C0E9FFE1C0EAFFEE52400EEF6E400E17
:102E7000146EE0C0E9FFE1C0EAFF1450EF16880EBF
:102E8000146EE0C0E9FFE1C0EAFF1450EF12000148
:102E9000AB75127E1292A0D4120012001200120022
:102EA0001200D9CFE6FFE1CFD9FFE652020130513F
:102EB000600BE842E842E842E842E842020833E1B7
:102EC00030BF07D00001380EB56F020EB66FB86B79
:102ED00027D0900E315D18E134C214F035C215F0E0
:102EE000D890143615367E0E1414DF6EDFCFE6FF51
:102EF00022EC18F0E5520201386FDF28E66E22EC72
:102F000018F0E552020104D00201360E386F830E2C
:102F1000396F0001380EB56F020EB66F020EB86F32
:102F2000B96BC10EB76FE552E552E7CFD9FF12007A
:102F300012001A0EE66E010EE66EA9EC0FF0E552D5
:102F4000E5521C0EE66E020EE66EA9EC0FF0E5529D
:102F5000E5520001DE6BDF6BE06BE16BE26BE36B74
:102F60000B6A0C6A0F6A106A116A12000001C3052D
:102F70001EE10001C4051BE191DF64920001C46BF6
:102F80000001100EE56F0E0EE66FE507000EE65B22
:102F9000E551E611FAE16484080EE56F070EE66F6D
:102FA000E507000EE65BE551E611FAE164941200D4
:102FB000D9CFE6FFE1CFD9FFFD0EDBCF06F0FE0E45
:102FC000DBCF07F0050E061801E1075036E0E86890
:102FD000061802E17F0E07182FE0030E061801E124
:102FE000075028E0020E061801E1075021E0010E0B
:102FF000061801E107501AE0740E061801E10750A7
:1030000013E0750E061801E107500CE0730E061868
:1030100001E1075005E0720E06180FE107500DD0D0
:103020003EDF0BD03ADF09D039DF07D082DF05D091
:103030007FDF03D036DF01D033DF010EE552E7CF6B
:04304000D9FF1200A2
:0C304400D9CFE6FFE1CFD9FFFE0EDB5034
:10305000020804E1700EF66E370E98D1FE0EDB50BA
:10306000030804E1710EF66E370E90D1FE0EDB50B0
:10307000040804E1720EF66E370E88D1FE0EDB50A6
:10308000050804E1730EF66E370E80D1FE0EDB509C
:10309000060804E1740EF66E370E78D1FE0EDB5092
:1030A000070804E1750EF66E370E70D1FE0EDB5088
:1030B000080804E1810EF66E370E68D1FE0EDB5073
:1030C000090804E1820EF66E370E60D1FE0EDB5069
:1030D0000A0802E11C0E01D2FE0EDB500C0804E1CE
:1030E0006A0EF66E370E52D1FE0EDB500D0804E16B
:1030F0006B0EF66E370E4AD1FE0EDB500E0802E163
:10310000940EEBD1FE0EDB500F0804E1DA0EF66EE2
:10311000370E42D0FE0EDB5010080EE1DA0EF66ECE
:10312000370EF76E0900F5500800F5CFF7FFF66E81
:103130000800F550140F27D0FE0EDB50110804E1F3
:10314000DC0EF66E370E28D0FE0EDB5012081DE1A5
:10315000DC0EF66E370EF76E0900F5500800F5CF5D
:10316000F7FFF66E0800F5CF14F0DA0EF66E370EA4
:10317000F76E0900F5500800F5CFF7FFF66E08006E
:10318000F550140F1424800FA8D1FE0EDB50130845
:103190000BE1DE0EF66E370EF76E0900F5500800F3
:1031A000F5CFF7FFF66E87D1140E146EFE0EDB50CE
:1031B000D88014541DE3DA0EF66E370EF76E090050
:1031C000F5500800F5CFF7FFF66E0800F550140F24
:1031D000F36EFE0EDBCFF4FFF350F45C09E2FE0E5B
:1031E000DB50EC0F146E156ADA0EF66E370EC3D094
:1031F000DA0EF66E370EF76E0900F5500800F5CFBF
:10320000F7FFF66E0800F550140F146EFE0EDB503B
:10321000D88014543AE3DC0EF66E370EF76E0900D0
:10322000F5500800F5CFF7FFF66E0800F5CF15F062
:10323000DA0EF66E370EF76E0900F5500800F5CF7E
:10324000F7FFF66E0800F550140F1524F36EFE0E0E
:10325000DBCFF4FFF350F45C18E2FE0EDBCFE6FFA9
:10326000DA0EF66E370EF76E0900F5500800F5CF4E
:10327000F7FFF66E0800F550140FE552E75C146E88
:10328000156ADC0EF66E370E76D0DC0EF66E370E53
:10329000F76E0900F5500800F5CFF7FFF66E08004D
:1032A000F5CF15F0DA0EF66E370EF76E0900F55011
:1032B0000800F5CFF7FFF66E0800F550140F15243F
:1032C000146EFE0EDB50D880145462E3DE0EF66EF0
:1032D000370EF76E0900F5500800F5CFF7FFF66ED0
:1032E0000800F5CF17F0DC0EF66E370EF76E09000A
:1032F000F5500800F5CFF7FFF66E0800F5CF16F091
:10330000DA0EF66E370EF76E0900F5500800F5CFAD
:10331000F7FFF66E0800F550140F16241724F36E0D
:10332000FE0EDBCFF4FFF350F45C32E2FE0EDBCF97
:10333000E6FFDC0EF66E370EF76E0900F55008005A
:10334000F5CFF7FFF66E0800F5CF16F0DA0EF66E41
:10335000370EF76E0900F5500800F5CFF7FFF66E4F
:103360000800F550140F1624E552E75C146E156A38
:10337000DE0EF66E370EF76E0900F5501424F36E6C
:103380000900F5501520F46EF3CFF6FFF76E93D0D9
:10339000DE0EF66E370EF76E0900F5500800F5CF19
:1033A000F7FFF66E0800F5CF16F0DC0EF66E370E5E
:1033B000F76E0900F5500800F5CFF7FFF66E08002C
:1033C000F5CF15F0DA0EF66E370EF76E0900F550F0
:1033D0000800F5CFF7FFF66E0800F550140F15241E
:1033E0001624146EFE0EDB50D880145467E3DE0EF4
:1033F000F66E370EF76E0900F5500800F5CFF7FFAF
:10340000F66E0800F5CF18F0DC0EF66E370EF76E8C
:103410000900F5500800F5CFF7FFF66E0800F5CF6C
:1034200017F0DA0EF66E370EF76E0900F550080049
:10343000F5CFF7FFF66E0800F550140F1724182487
:10344000040FF36EFE0EDBCFF4FFF350F45C36E2B4
:10345000FE0EDBCFE6FFDE0EF66E370EF76E0900CE
:10346000F5500800F5CFF7FFF66E0800F5CF15F020
:10347000DC0EF66E370EF76E0900F5500800F5CF3A
:10348000F7FFF66E0800F5CF14F0DA0EF66E370E81
:10349000F76E0900F5500800F5CFF7FFF66E08004B
:1034A000F550140F14241524E552E75CF76A760FE3
:1034B000F66E370EF7220800F5500FD0FE0EDB50E7
:1034C0007E0803E10001E75108D0FE0EDB507F08C3
:1034D00003E10001E85101D0000EE552E7CFD9FF2A
:1034E0001200D9CFE6FFE1CFD9FFE6520001AA0EC4
:1034F000E76FE86FDF6A7E0EDF5C1DE2DFCFE6FF7D
:10350000A1DDE5520001E71BDF28E66E9BDDE552F9
:103510000001E81BE851800B08E0D890E737E83756
:10352000010EE713000EE81303D0D890E737E83711
:10353000020EDF26E0D7E552E552E7CFD9FF1200B1
:10354000008040C020A060E0109050D030B070F0FB
:10355000088848C828A868E8189858D838B878F86B
:10356000048444C424A464E4149454D434B474F49B
:103570000C8C4CCC2CAC6CEC1C9C5CDC3CBC7CFC0B
:10358000028242C222A262E2129252D232B272F29B
:103590000A8A4ACA2AAA6AEA1A9A5ADA3ABA7AFA0B
:1035A000068646C626A666E6169656D636B676F63B
:1035B0000E8E4ECE2EAE6EEE1E9E5EDE3EBE7EFEAB
:1035C000018141C121A161E1119151D131B171F16B
:1035D000098949C929A969E9199959D939B979F9DB
:1035E000058545C525A565E5159555D535B575F50B
:1035F0000D8D4DCD2DAD6DED1D9D5DDD3DBD7DFD7B
:10360000038343C323A363E3139353D333B373F30A
:103610000B8B4BCB2BAB6BEB1B9B5BDB3BBB7BFB7A
:10362000078747C727A767E7179757D737B777F7AA
:103630000F8F4FCF2FAF6FEF1F9F5FDF3FBF7FFF1A
:10364000060EF66E100EF76E000EF86E0001090001
:10365000F550D96F0900F550DA6F03E1D96701D051
:103660003DD00900F550D46F0900F550D56F090021
:10367000F550D66F09000900F550E96E0900F550C4
:10368000EA6E090009000900F550D76F0900F550EE
:10369000D86F09000900F6CFDBF0F7CFDCF0F8CFE8
:1036A000DDF0D4C0F6FFD5C0F7FFD6C0F8FF0001AB
:1036B000D75302E1D85307E00900F550EE6ED70763
:1036C000F8E2D807F9D7DBC0F6FFDCC0F7FFDDC0B2
:0E36D000F8FF0001D907000EDA5BBFD7120029
:0236DE00D9CF42
:1036E000E6FFDACFE6FFFA0EE3CFD9FFFB0EE3CF1A
:1036F000DAFFFC0EE3CFE9FFFD0EE3CFEAFFE9CFEF
:10370000F3FFEACFF4FFF80EE35003E1F90EE350C4
:1037100008E0F80EE30602E2F90EE306DECFEEFF64
:10372000F2D7FF0EE3CFDAFFE552FF0EE3CFD9FF6A
:10373000E5521200FE0EE3CFE9FFFF0EE3CFEAFFF2
:10374000E9CFF3FFEACFF4FFFB0EE35003E1FC0EF9
:10375000E35009E0FB0EE30602E2FC0EE306FD0E79
:08376000E350EE6EF1D71200F8
:0837680012011001000000082D
:10377000FB090160000401020301090220000101AC
:103780000080280904000002FFFFFF0007058102F6
:1037900040000107050202400001040309040E0372
:1037A00041006C0074006500720061001803550050
:1037B000530042002D0042006C0061007300740051
:1037C000650072001203300030003000300030001D
:1037D0003000300030007A379A379E37AC37C43724
:1037E000000EF36E00EE00F0030E01D81200EA6046
:1037F00002D0EE6AFCD7F350E9601200EE6AFCD703
:1038000010EE60F020EE60F0F86A0A9C20EC1BF0ED
:0C38100007EC08F0B2EC13F0FBD712003C
:020000040030CA
:0100000000FF
:0100010032CC
:0100020001FC
:010003001EDE
:0100050000FA
:010006008178
:0100080003F4
:01000900C036
:01000A0003F2
:01000B00E014
:01000C0003F0
:01000D0040B2
:00000001FF
